:020000040000FA
:10000000B814002059020000730200002D02000005
:1000100000000000000000000000000000000000E0
:100020000000000000000000000000007702000057
:100030000000000000000000AB010000211B0000D8
:10004000250E00002F0E0000390E0000430E0000A8
:100050004D0E0000570E0000610E00006B0E0000F8
:10006000750E00007F0E0000890E0000930E000048
:100070009D0E0000A70E0000B10E0000BB0E000098
:10008000C50E0000CF0E0000D90E0000E30E0000E8
:10009000ED0E0000F70E0000010F00000B0F000036
:1000A000150F00001F0F0000290F0000330F000084
:1000B0003D0F0000470F0000510F00005B0F0000D4
:1000C00000F002F800F030F80CA030C8083824180E
:1000D0002D18A246671EAB4654465D46AC4201D180
:1000E00000F022F87E460F3E0FCCB6460126334282
:1000F00000D0FB1AA246AB4633431847A8C4000001
:10010000C8C400000023002400250026103A01D3B3
:1001100078C1FBD8520700D330C100D50B607047BF
:100120001FB51FBD10B510BD00F09CFA1146FFF7BA
:10013000F7FF00F0EEFA00F0B4FA03B4FFF7F2FFB5
:1001400003BC03F017F8000070B505460C461646D0
:1001500002E00FCC0FC5103E102EFAD2082E02D3AB
:1001600003CC03C5083E042E07D301CC01C5361FBE
:1001700003E021782970641C6D1C761EF9D270BDD5
:10018000EFF3108072B6704780F3108870472A4AE8
:100190001368012B03D001231360284A1060284AFA
:1001A00011602848284901607047EFF3108272B649
:1001B0002148016800291DD0002101601F48016805
:1001C00000290AD0EFF30981203900680160F0C1ED
:1001D00044464D4656465F46F0C1194909680968CC
:1001E000F0C9F0B4F0C9A046A946B246BB46F0BC7F
:1001F00081F3098882F310880420404200471049A7
:1002000008600E49002008600B49012008600F4873
:100210000F490268114301600A480B4901600D480B
:100220000068006880F3088862B67047EFF30980C1
:1002300000B505F067FF00BD140000200C00002091
:100240001000002004ED00E00000001020ED00E0B0
:100250000000FFFF08ED00E00C480D4A002100A15E
:10026000814200D902440B4802600B4880470B488A
:100270000047FEE7FEE7FEE7FEE7FEE7FEE70000D9
:1002800007480849084A094B704700000000002051
:100290000000000008ED00E0ED1E0000C1000000BD
:1002A000B8100020B8140020B8120020B8120020A6
:1002B00070477047034610B50B439B070FD1042AC4
:1002C0000DD308C810C9121FA342F8D018BA21BA1A
:1002D000884201D9012010BD0020C04310BD002A72
:1002E00003D0D30703D0521C07E0002010BD0378D1
:1002F0000C78401C491C1B1B07D103780C78401C50
:10030000491C1B1B01D1921EF1D1184610BD0000E3
:10031000034670B502460B439B070FD10E4CE60116
:1003200000E008C208C91D1B9D433542F9D0D9B26F
:100330001170521C00290DD01B0AF8E70B78491CDC
:100340001370521C002B05D00B78491C1370521CE3
:10035000002BF3D170BD00000101010130B5441C38
:1003600003E00178401C00290DD08107F9D10B4B27
:10037000DD0104C8D11A91432940FAD0001B0A06B6
:1003800003D0C01E30BD001B30BD0A0401D0801E4A
:1003900030BD0902FCD0401E30BD0000010101014A
:1003A0000346F0B50B439B072DD1244DEF01042AE2
:1003B00029D308C810C95E1B9E43121F3E4017D0A8
:1003C000D8B2E1B2401A3106014310D198B2A1B2BD
:1003D000401A310401430AD118022102000A090A15
:1003E000401A3102014302D1180E210E401AF0BD0D
:1003F000A342DCD018BA21BA884201D90120F0BD4D
:100400000020C043F0BD002A01D10020F0BD0378D8
:100410000C78401C491C002B0DD0A3420BD1521E5E
:1004200009D003780C78401C491C002B03D0A34250
:1004300001D1521EEBD1181BF0BD000001010101DA
:10044000421E5378521C002BFBD10B78491C1370B1
:10045000521C002BF9D17047F8B507460B463946B8
:100460001943890713D1164CE601042A0FD302CB96
:100470000D1B8D43354202D102C0121FF5E7CBB2EE
:100480000370401C521E002B13D0090AF7E7002A04
:1004900014D01978521E5B1C0170401C002908D032
:1004A000002A0BD01978521E5B1C0170401C0029D9
:1004B000EDD1002A02D0114600F0D0F83846F8BD40
:1004C00001010101002203098B422CD3030A8B4254
:1004D00011D300239C464EE003460B433CD400223C
:1004E00043088B4231D303098B421CD3030A8B424E
:1004F00001D394463FE0C3098B4201D3CB01C01A1C
:10050000524183098B4201D38B01C01A52414309E6
:100510008B4201D34B01C01A524103098B4201D3D4
:100520000B01C01A5241C3088B4201D3CB00C01A41
:10053000524183088B4201D38B00C01A52414308B9
:100540008B4201D34B00C01A5241411A00D20146DE
:100550005241104670475DE0CA0F00D04942031077
:1005600000D34042534000229C4603098B422DD3C6
:10057000030A8B4212D3FC22890112BA030A8B426E
:100580000CD3890192118B4208D3890192118B42BD
:1005900004D389013AD0921100E08909C3098B4242
:1005A00001D3CB01C01A524183098B4201D38B0185
:1005B000C01A524143098B4201D34B01C01A524128
:1005C00003098B4201D30B01C01A5241C3088B426D
:1005D00001D3CB00C01A524183088B4201D38B0058
:1005E000C01A5241D9D243088B4201D34B00C01AE2
:1005F0005241411A00D20146634652415B101046F7
:1006000001D34042002B00D54942704763465B103E
:1006100000D3404201B50020C046C04602BD70472D
:100620007047704701E004C0091F0429FBD28B0703
:1006300001D50280801CC90700D0027070470029D4
:100640000BD0C30702D00270401C491E022904D3FC
:10065000830702D50280801C891EE3E70022EEE7B3
:100660000022DFE7754600F025F8AE460500694632
:100670005346C008C000854618B020B5FFF700FEFD
:1006800060BC00274908B6460026C0C5C0C5C0C525
:10069000C0C5C0C5C0C5C0C5C0C5403D49008D4628
:1006A000704710B50446C046C0462046FFF745FDDA
:1006B00010BD0000004870475410002070B58C1821
:1006C0000578401C6B075B0F01D10378401C2A1191
:1006D00006D10278401C03E00678401C0E70491CCD
:1006E0005B1EF9D12B0705D40023521E0DD40B70CD
:1006F000491CFAE70378401CCB1A921C03E01D78D2
:100700000D70491C5B1C521EF9D5A142D8D30020A4
:1007100070BD10B508F0B1FE002010BD01460020EC
:1007200005E002460A32D0B20A46103AD1B2102988
:10073000F7DA4218D0B2704703461807000F0928AD
:1007400007DCF0201840902803DC934201DC8B4248
:1007500001DA012070470020FCE710B5002400F00A
:1007600027F804E0601CC4B2012002F0ABFE0421B3
:10077000402000F055FA002801D0642CF2DB642CF4
:1007800001DB012010BD002404E0601CC4B2012084
:1007900002F098FE0421402000F042FA002801D126
:1007A000642CF2DB642C01DB0120EBE70020E9E79D
:1007B0001CB50521684602F074FE012168460170EF
:1007C000002181706A460421402000F05BFA1CBDC4
:1007D0001CB50521684602F064FE002168460170E0
:1007E00041708170C1706A460421402000F04AFACD
:1007F0001CBD10B500F069F8FFF7AFFF10BD10B5D4
:10080000002404E0601CC4B2012002F05BFE04215D
:10081000402000F005FA002801D0642CF2DB00240F
:1008200004E0601CC4B2012002F04CFE0421402010
:1008300000F0F6F9002801D1642CF2DB042002F06C
:1008400041FE0421402000F0EBF9002801D00120F6
:1008500010BD0020FCE770B50024002506E060060E
:10086000040EFFF7CCFF0443681CC5B2082DF6DB6D
:10087000204670BD7CB505460E4600F026F8FFF711
:100880006CFF00281FD1002405E0FFF7E4FF694654
:100890000855601CC4B2052CF7DB68460178407827
:1008A00009186846807809186846C07809186846AB
:1008B0000079814207D168460078307068468078B8
:1008C000287000207CBD0120FCE710B5FFF780FFF9
:1008D00000220421402000F089FA142002F020FEBA
:1008E00001220421402000F081FA032002F0EAFDF9
:1008F00010BD00001CB525492548FFF7BBFF0120AE
:10090000102300222D2100900A2000F01DFD01205F
:10091000102302222D210090192000F015FD012046
:100920001021022300910190194802782D212A20DC
:1009300000F08EFD0120102316A22D2100903C20F6
:1009400000F0D2FD0120102302462D210090462008
:1009500000F0FAFC0120102302222D2100905520E6
:1009600000F0F2FC012010210223009101900748C1
:1009700002782D21662000F06BFD0120102306A2D5
:100980002D210090782000F0AFFD1CBD0800002054
:10099000070000204300000025000000F0B585B0EE
:1009A000524800F05FFF002809D00120082350A220
:1009B00032210090002000F097FD05B0F0BD01202D
:1009C000102303220A210090202000F0BDFC47499B
:1009D000887901F06FF87D21090146180120102166
:1009E00004233246009101900A21002000F030FDDE
:1009F0003E49487901F05EF80446012C01DB0C2CDD
:100A000001DD012000E020460446012010230422DD
:100A10000A210090482000F097FC012010210223B9
:100A20002246009101900A21352000F011FD2F4946
:100A3000087901F03FF80546012D01DB1F2D01DD8E
:100A4000012000E0284605460120102305220A2146
:100A50000090702000F078FC0120102102232A462B
:100A6000009101900A215D2000F0F2FC1F49887876
:100A700001F020F807461D49487801F01BF8039063
:100A80001A49087801F016F8029001200C2102237F
:100A90003A46009101902021084600F0D9FC01203F
:100AA0000C2317A2202100902F2000F01DFD012013
:100AB0000C2102230091019020213920039A00F09B
:100AC000C7FC01200C230EA221210090482000F039
:100AD0000BFD01200C2102230091019020215020C8
:100AE000029A00F0B5FC00BF67E70000000000209C
:100AF00052544320524541442045525200000000C8
:100B00003A00000070B504460E46154620460028FF
:100B100005DBC206D20E012191401A4A116000BFC6
:100B20003146204601F00CFE012D0ED12046002852
:100B300009DB00BF00BFC206D20E01219140124A5C
:100B4000116000BF00BF00BF1BE02046002816DB7D
:100B5000C206D20E012191400B4A8032116000BFC3
:100B600000BF00BFBFF34F8F00BF00BF00BF00BF7B
:100B700000BF00BFBFF36F8F00BF00BF00BF00BF4B
:100B800000BF70BD80E200E000E100E010B5024669
:100B90000023501E074C235C022A09D10846CC17BB
:100BA000A40F2418A410A4000C1B01D1581CC3B21C
:100BB000184610BDFCB70000024605481018006931
:100BC00001238B409843024BD318186100207047D3
:100BD000000E0240024605481018406901238B4070
:100BE0001843024BD318586100207047000D024093
:100BF00070B504460D461646002332462946204667
:100C000001F0D2FC002070BD70B504460D461646BA
:100C1000012332462946204601F0C6FC002070BD63
:100C20000246034810184068C840C007C00F70470C
:100C3000000D02400246034810180068C840C00773
:100C4000C00F7047000E024070B50546A807060E9B
:100C500005F0C0FB00240FE021463046FFF7EAFF15
:100C6000012807D121463046FFF7A6FF214630462E
:100C700004F018FC601CC4B20F2CEDDD05F0D4FBB1
:100C800070BD000030B503460020494C1C198D0092
:100C900060511078012809D14648181800680124CD
:100CA0008C402043434C1C19206008E04148181830
:100CB000006801248C40A0433E4C1C1920605078F1
:100CC000002809D13B481818C06901248C40A04372
:100CD000384C1C19E06108E036481818C069012436
:100CE0008C402043334C1C19E0619078012812D1CC
:100CF00030481818006A01248C4020432D4C1C19E0
:100D000020622C481818446A0120884084432948EE
:100D10001818446227E09078022812D12548181844
:100D2000006A01248C40A043224C1C1920622148F7
:100D30001818406A01248C4020431E4C1C19606224
:100D400011E01C481818006A01248C40A043194C7B
:100D50001C19206217481818406A01248C40A043CF
:100D6000144C1C196062D078002809D11148181859
:100D7000C46A0120884084430E481818C46208E001
:100D80000C481818C06A01248C402043094C1C19D7
:100D9000E062094880680124E403A0431479E40375
:100DA0000125ED032C402043034CA060002030BD02
:100DB000000C0240000D0240000F024010B5034637
:100DC000024818188C000251002010BD000C02408F
:100DD000024605481018006901238B401843024B56
:100DE000D318186100207047000D024010B503466B
:100DF000002A09D00A481818806801248C40204332
:100E0000074C1C19A06008E00548181880680124E8
:100E10008C40A043024C1C19A060002010BD0000B3
:100E2000000D024010B50020FFF70EFF10BD10B5F9
:100E30000120FFF709FF10BD10B50220FFF704FFE6
:100E400010BD10B50320FFF7FFFE10BD10B5002048
:100E5000C046C04610BD10B50020C046C04610BDFB
:100E600010B5002001F040FA10BD10B5012001F0CE
:100E70003BFA10BD10B50020C046C04610BD10B5ED
:100E80000120C046C04610BD10B50020C046C04677
:100E900010BD10B50120C046C04610BD10B50020E1
:100EA000C046C04610BD10B50120C046C04610BDAA
:100EB00010B50020C046C04610BD10B50120C04688
:100EC000C04610BD10B50220C046C04610BD10B5CA
:100ED0000020C046C04610BD10B50420C046C04624
:100EE00010BD10B50520C046C04610BD10B5062087
:100EF000C046C04610BD10B50020C046C04610BD5B
:100F000010B50020C046C04610BD10B50020C04638
:100F1000C04610BD10B50020C046C04610BD10B57B
:100F20000020C046C04610BD10B50020C046C046D7
:100F300010BD10B50120C046C04610BD10B5002040
:100F4000C046C04610BD10B50020C046C04610BD0A
:100F500010B50020C046C04610BD10B50020C046E8
:100F6000C04610BD70B500240CE0002506E000204E
:100F7000E900074A89180855681CC5B2802DF6DBC0
:100F8000601CC4B2082CF0DB00F024F970BD000036
:100F9000FC04002010B50446002C03D10021A6203B
:100FA00000F0C4FA012C03D10021A72000F0BEFA02
:100FB00010BD10B50446002C07D10021C82000F058
:100FC000B5FA0021A12000F0B1FA012C07D10021CF
:100FD000C02000F0ABFA0021A02000F0A7FA10BD5D
:100FE000F8B514460B46CE17760FF6187605320E76
:100FF000CE17760FF618F610F6008E1BF6B2009696
:101000000126009B9E40F5B2002C09D0C300114E72
:101010009B199B5C2B43C6000E4FF619B35418E086
:10102000C3000C4E9B199B5CDB43C600094FF619AD
:10103000B354C3003E469B199B5C2B43C600F61974
:10104000B354C3003E469B199B5CDB43C600F619B4
:10105000B354F8BDFC0400201CB501211C2000F095
:10106000D1FE00216846017001218170002141708C
:101070000121C17001716A4608210020FFF702FEBC
:101080006A4609210020FFF7FDFD6A460A2100207B
:10109000FFF7F8FD6A460B210020FFF7F3FD08215A
:1010A0000020FFF795FE09210020FFF791FE0A219D
:1010B0000020FFF78DFE0B210020FFF789FE0A219B
:1010C0000020FFF787FDC82002F02AFA0A2100203D
:1010D000FFF77EFE0021AE2000F028FA002108462E
:1010E00000F024FA0021102000F020FA0021402016
:1010F00000F01CFA0021812000F018FA0021CF2016
:1011000000F014FA0021A12000F010FA0021C820FC
:1011100000F00CFA0021A62000F008FA0021A82017
:1011200000F004FA00213F2000F000FA0021D32053
:1011300000F0FCF90021084600F0F8F90021D52064
:1011400000F0F4F90021802000F0F0F90021D9200E
:1011500000F0ECF90021F12000F0E8F90021DA209C
:1011600000F0E4F90021122000F0E0F90021DB207A
:1011700000F0DCF90021402000F0D8F90021202007
:1011800000F0D4F90021022000F0D0F900218D20D8
:1011900000F0CCF90021142000F0C8F90021A420AF
:1011A00000F0C4F90021A62000F0C0F9FFF7DAFE34
:1011B0000021AF2000F0BAF91CBD10B50246012095
:1011C00002E00346534318460B464C1EE1B2002B87
:1011D000F7D110BD70B500241CE02146B031C8B273
:1011E000002100F0A3F90021084600F09FF900213A
:1011F000102000F09BF9002508E0E900074A891853
:10120000085D012100F092F9681CC5B2802DF4DB65
:10121000601CC4B2082CE0DB70BD0000FC040020A0
:10122000FFB585B01C460598029006980190082CE1
:1012300002D10620039017E02046E217520F121841
:10124000D210E3175B0F1B18DB10DB000094E31ACE
:1012500001D0012300E00023D2182146E30F5B18E0
:101260005B105A43D2B2039207982038C7B20025C8
:101270005CE0082C05D1062078432F494018465DD4
:1012800018E00C2C05D10C2078432C494018465D01
:1012900010E0102C04D1380129494018465D09E0BE
:1012A000182C05D12420784326494018465D01E0DA
:1012B00009B0F0BD002004901DE0F007C00F002829
:1012C00005D00E9A06990598FFF78AFE0AE00E9857
:1012D000002801D1012000E000200246069905986F
:1012E000FFF77EFE76100698401CC0B20690049868
:1012F000401CC0B2049004980828DEDB0598401C0E
:10130000C0B20590082C0DD0E10F09194B10029ABC
:101310000599891A8B4205D10298059001980830E9
:10132000C0B2019001980690681CC5B2039885422E
:101330009FDB00BFBCE70000B2960000DA98000017
:101340004E9D00003EA30000FFB585B0074616463F
:101350001C460297069801902046E217520F121879
:10136000D2102146E3175B0F5B18DB10DB00E31A9A
:1013700001D0012300E00023D218624392B2009210
:10138000002558E0102C05D170012D494018405D12
:1013900003901AE0182C06D14820704329494018C0
:1013A000405D039011E0202C05D1F0012649401842
:1013B000405D039009E0402C05D17002234940189C
:1013C000405D039001E009B0F0BD0020049020E0F2
:1013D0000398C007C00F002805D038460E9A06991A
:1013E000FFF7FEFD0AE00E98002801D1012000E081
:1013F0000020024638460699FFF7F2FD0398401098
:1014000003900698401CC0B206900498401CC0B2DD
:10141000049004980828DBDB781CC7B20298381ABD
:10142000A04204D1029F01980830C0B201900198F7
:101430000690681C85B200988542A3DB00BFC2E716
:101440009AB000005AB10000A2B1000022B2000020
:10145000FFB585B007460E9C00200490082C01D1F2
:101460000220049000253AE00898401B401EC1B2BB
:101470000A20FFF7A2FE014602900798FFF722F824
:101480000A210390FFF71EF80E46002E11D10F9887
:1014900003940090E00F0019411004980818684365
:1014A000C019C0B22346302202900699FFF7B8FE59
:1014B00013E00F9803940090E00F00194110049876
:1014C00008186843C019C0B2029030463030C2B22A
:1014D000234606990298FFF7A3FE681CC5B2089838
:1014E0008542C1DB09B0F0BDFFB581B006461446A8
:1014F0001D460A9F12E0009722782B46304602993B
:10150000FFF78EFE082D02D1B01DC6B205E02846B9
:10151000E90F091849108919CEB2641C20782028D7
:1015200002DB20787E28E6DD05B0F0BD70B504460C
:101530000E46002E04D00B210020FFF749FC03E0EB
:101540000B210020FFF746FB04210020FFF742FBA0
:10155000002518E008210020FFF73CFB80202040F8
:10156000002804D009210020FFF732FC03E0092104
:101570000020FFF72FFB08210020FFF729FC600661
:10158000040E681CC5B2082DE4DB04210020FFF71F
:101590001FFC0B210020FFF71BFC70BD00B589B0BC
:1015A000142104A801F07DFF032103A801F079FFB5
:1015B000072101A801F075FF0121142000F022FC91
:1015C0000121032000F0B4FA1021684601710121C5
:1015D000417111218171152101720521417225216D
:1015E0008172002101740121417403A8059001A8B2
:1015F0000690002168460173022141730021817326
:1016000004A800F0E9F8002000F0B4F809B000BD2B
:1016100000487047C8030020F0B585B004460D4669
:1016200000262820049000200290012762E0002D6F
:1016300059D00120B040002855D0330001F02AF8DD
:1016400007050C132B323C4650002078592200210C
:10165000FFF772F8074644E0207859220021FFF78F
:101660006BF807463DE0424800680007C00F0028BD
:101670000AD12078C006C00E0290122200210298E2
:10168000FFF75AF8074605E0207824220021FFF7EB
:1016900053F8074625E0207806220021FFF74CF892
:1016A00007461EE0207831220021FFF745F8074663
:1016B00020786946087314E0207812220021FFF791
:1016C0003BF807462078694648730AE0207899225B
:1016D0000021FFF731F8074620786946887300E05B
:1016E00000BF00BF641C002F02D0384605B0F0BD1B
:1016F000701CC6B2072E9ADB10202840002826D086
:1017000020202840002822D04020284000280ED049
:101710006946887BFFF702F869460190487BFEF72F
:10172000FDFF00900199FFF731FA049008E0694647
:10173000487BFEF7F3FF01210190FFF727FA0490A1
:101740006846017B0498814201DD0120CEE710202C
:101750002840002809D020202840002805D16846CC
:10176000007B282801DD0120C0E700273846BDE7BF
:10177000001400400146002906D001290CD002299E
:1017800012D0032921D118E012480068802290432A
:101790008030104A10601AE00E4840688022904362
:1017A00080300C4A506012E00A48006B0122D203DC
:1017B00090438018074A106309E006480068202219
:1017C00090432030034A106001E00420704700BFBE
:1017D0000020FBE70014004070B504460126002CF1
:1017E00001D1012070BDFFF713FF0546207800F0FE
:1017F0009FF80646607800F0AFF80646002E01D04C
:101800003046EFE76068002806D0606800F0C0F856
:10181000002801D00120E5E7A068002808D00122B7
:101820001146A06800F0E2F8002801D00120D9E7B5
:10183000E068002805D0E06800682860E06840683B
:101840006860207C012805D1012203211720FFF7C1
:1018500059F904E0002203211720FFF753F930461D
:10186000C0E70000FEB501467D26F6002F4800685F
:101870000006C00F002817D02C48406840084000E0
:10188000401C2A4F786006E0284840688007C00F57
:10189000002800D003E03046761E0028F4D100BFB7
:1018A000002E01D10920FEBD20488068C4B21F4827
:1018B000C068C5B21D480069C2B21C488069C0B288
:1018C00002901A48C069C0B201901848006AC0B2BC
:1018D000009016484069C3B20C704D701348006800
:1018E0000007C00F002801D08A7002E0D006C00EA9
:1018F0008870029808710198487100988871CB70BF
:101900000A48406840084000084F78603846006840
:101910000006C00F002806D000BF044840688007BA
:10192000C00F0028F9D10020BDE7000000140040DE
:1019300010B501460120074A526807231B029A434B
:101940000B020724240223401A43024B5A60002052
:1019500010BD00000014004010B50146012200290E
:1019600002D001290CD100E000BF0848006808231C
:101970009843CB00082423401843044B186001E02F
:10198000042010BD00BF00221046FAE700140040FA
:1019900010B501460120144A126883039A430B785C
:1019A0009B03840323401A430F4B1A600A78002AD2
:1019B0000DD01A4612683F231B029A438B781B02F4
:1019C0003F24240223401A43074B1A6009E0064AC9
:1019D0001268D208D2004B785B075B0F1A43024BA8
:1019E0001A60002010BD000000140040F7B581B05F
:1019F00004460E4600257D27FF0000942C48006811
:101A00000006C00F002817D0294840684008400051
:101A1000401C2749486006E0254840688007C00F01
:101A2000002800D002E0781E071EF5D100BF002F6D
:101A300002D1092004B0F0BD012E0FD1072100987A
:101A4000FFF7EAFD0546002D01D02846F2E7207891
:101A5000174988606078C860A078086103980128F9
:101A600011D178210098FFF7D7FD0546002D01D050
:101A70002846DFE720790E4988616079C861A0793E
:101A80000862E07848610A48406840084000084918
:101A90004860084600680006C00F002806D000BF56
:101AA000034840688007C00F0028F9D12846C1E7E5
:101AB0000014004001460811092803DC0807000F44
:101AC000092801DD0020704708110A2250430A0747
:101AD000120F8018C0B2F6E710B500F0FFF97D21B3
:101AE000C9000C480068FEF7EDFC0446601E0A4978
:101AF000884200D90CE0601E084948610321081F94
:101B000000F0E2FD0020054988610720086100BF60
:101B100010BD00008C030020FFFFFF0000E000E08C
:101B200010B504F057FC06F085FF04F07DFC10BDF5
:101B300070B505460C46002600F0A0FD002C01D033
:101B4000012000E0002004462B0000F0A3FD050466
:101B500017394D7488004448006840084000E10788
:101B6000C90F08434049086000BF002C05D03E481B
:101B7000C0680005C00F0028F7D072E03B48C0687D
:101B800040084000401C3949C8600846C06802212E
:101B90008843801C3549C860334800680221884367
:101BA00061000222114008432F49086000BF002C49
:101BB00005D02D4800694006C00F0028F7D050E03E
:101BC0002948006804218843A100042211400843E9
:101BD0002549086000BF002C05D023484069C00497
:101BE000C00F0028F7D03CE020484038C0680121F1
:101BF0008903884340181D494039C8600846C068B9
:101C00000121C9038843401818494039C860164863
:101C1000006808218843E100082211400843124966
:101C2000086000BF002C05D00F4880694006C00F37
:101C30000028F7D015E00C480068102188432101E6
:101C40001022114008430849086000BF002C05D04D
:101C50000548C06B4003C00F0028F7D001E0042600
:101C600000BF00BF304670BD00200040C00D0240E4
:101C700030B589B000241422564904A8FEF764FA4E
:101C800054481430006803900020009001900290A6
:101C900051480188684601814F4841886846C180A3
:101CA0004D488188684681804B48C188684641809C
:101CB000494820300188684601804848006800068D
:101CC000450F2B0000F0E6FC05042E303E41780065
:101CD0004248C0684005400D69460989884201D1E3
:101CE000089C1EE03D48C0684005400D6946C98813
:101CF000884201D1079C14E03848C0684005400D77
:101D000069468988884201D1069C0AE03348C06848
:101D10004005400D69464988884201D1059C00E094
:101D2000049C4BE02E4C49E0684600882B494969E9
:101D30008905890D884202D16846C48901E0684658
:101D400084893BE00124E40338E02448C06B800729
:101D5000800F032829D1684600892049C9684905B0
:101D6000490D884201D1089C20E06846C0881B4983
:101D7000C9684905490D884201D1079C16E06846AB
:101D800080881649C9684905490D884201D1069CD9
:101D90000CE0684640881149C9684905490D8842E8
:101DA00001D1059C02E0049C00E00D4C0B48C06B87
:101DB000C005000F444301E0002400BF00BF0748F6
:101DC00000684005410F2046C8400446204609B03F
:101DD00030BD0000CCB70000000C10000020004017
:101DE0000048E80110B50024FFF742FF044604480C
:101DF0000068C004810F2046C8400446204610BD3C
:101E00000020004010B502460020002901D0012327
:101E100000E000231946002907D0084B1B6A012463
:101E200094402343054C236206E0044B1B6A0124C3
:101E30009440A343014C236210BD000000200040E9
:101E400010B5014600200B0000F024FC0504101C16
:101E5000283440001F4B1B895A05520D1E4BDB686E
:101E6000DB0ADB0213431C4CE36031E0194BDB88D7
:101E70005A05520D184BDB68DB0ADB021343164C84
:101E8000E36025E0134B9B885A05520D124BDB682B
:101E9000DB0ADB021343104CE36019E00D4B5B8857
:101EA0005A05520D0C4BDB68DB0ADB0213430A4C6C
:101EB000E3600DE0074B1B885A05520D064BDB68AB
:101EC000DB0ADB021343044CE36001E0042000BFA3
:101ED00000BF10BD000C10000020004010B5FFF73F
:101EE000C7FE0149086010BD8C03002010B5FFF744
:101EF000F5FF10BD70B50546A81D44B2204600F0A0
:101F0000D7FB0321204600F057FC2046002815DBB4
:101F1000C206D20E01219140094A116000BF00BFE4
:101F200000BFBFF34F8F00BF00BF00BF00BF00BFA7
:101F300000BFBFF36F8F00BF00BF00BF00BF70BD09
:101F400080E100E010B502460020002100BF0BE058
:101F50001C234B43064CE358934203D11C234B43B1
:101F6000181903E04B1CD9B20229F1D300BF10BDF0
:101F70009003002070B50546A81D44B2204600F02D
:101F800097FB0321204600F017FC2046002809DBC0
:101F900000BF00BFC206D20E01219140024A11606B
:101FA00000BF00BF00BF70BD00E100E0F8B506460D
:101FB0000C4600270020009000253046FFF7C2FFA6
:101FC0000746786840688005C50F2079002800D151
:101FD000F8BD2079012802D0207903280DD1002DE9
:101FE00001D1102500E00825A2686A431146206847
:101FF000FEF768FA80B200900AE0002D01D120259A
:1020000000E0102529462068FEF75CFA80B20090B7
:102010000098DDE770B506460D4600243046FFF710
:1020200091FF0446002C01D1042070BD2B0000F06C
:1020300031FB05040B12192027006068406920213C
:102040008843616848611CE060684069400840005E
:102050006168486115E060684069022188436168F1
:1020600048610EE0606840691021884361684861FA
:1020700007E060684069042188436168486100E0C6
:1020800000BF00BF0020D0E770B506460D46002413
:102090003046FFF757FF0446002C01D1042070BDE5
:1020A0002B0000F0F7FA07050C33131B232B33002A
:1020B00060684068022188436168486028E0606881
:1020C0004068400840006168486021E060684068FE
:1020D0000121490588436168486019E060684068EB
:1020E0000121090588436168486011E06068406823
:1020F0000121490388436168486009E060684068DD
:10210000FF21013188436168486001E00420C6E78F
:1021100000BF0020C3E770B506460D4600243046D8
:10212000FFF710FF0446002C01D1042070BD2B00E6
:1021300000F0B0FA060405300D161F3000BF6068CD
:1021400040681021884310306168486024E060686E
:1021500040680121490488434018616848601BE0D9
:10216000606840680121090488434018616848603C
:1021700012E0606840680121C90488434018616822
:10218000486060684068012189048843401861689C
:10219000486001E00420C9E700BF0020C6E770B531
:1021A00006460D4600243046FFF7CCFE0446002CC0
:1021B00001D1042070BD2B0000F06CFA07050D3929
:1021C000151E273039006068406802218843801C52
:1021D000616848602DE06068406840084000401C2D
:1021E0006168486025E060684068012149058843CE
:1021F0004018616848601CE060684068012109057A
:10220000884340186168486013E0606840680121B5
:10221000490388434018616848600AE06068406884
:10222000FF210131884340186168486001E00420C3
:10223000C0E700BF0020BDE7F8B506460D46002701
:1022400000243046FFF77EFE0446002C01D1042016
:10225000F8BD2B0000F01EFA07050E172029323BAF
:102260004400606800694006C00F012148404840B2
:10227000074636E060680069C007C00F012148408A
:10228000484007462DE0606800698007C00F0121C3
:1022900048404840074624E060680069C006C00F17
:1022A00001214840484007461BE06068006940073C
:1022B000C00F012148404840074612E060680069AD
:1022C0008006C00F012148404840074609E0606889
:1022D00000690007C00F012148404840074600E060
:1022E00000BF00BF3846B3E770B505460024284656
:1022F000FFF728FE0446002C00D170BD606800691D
:102300004007C00F002809D004212846FFF782FEAD
:10231000E068002801D0E0688047EEE76068006967
:10232000C006C00F002809D003212846FFF772FE1F
:10233000A069002801D0A0698047DEE760680069D5
:102340008006C00F002808D000212846FFF762FE53
:102350006069002801D06069804760680069C00733
:10236000C00F002808D001212846FFF753FE20693E
:10237000002801D020698047606800698007C00F8D
:10238000002808D002212846FFF744FEA068002854
:1023900001D0A068804700BFAFE7F8B506460C46FD
:1023A000012700253046FFF7CDFD0546002D01D160
:1023B0000420F8BD002C01D10420FAE72178304632
:1023C00000F093F807466178304600F0CAF80746F7
:1023D0006068002804D03046616800F09EF8074627
:1023E000A06800280ED0A0684168E960A0688168F4
:1023F0002961A0680068A860A068C1686961A068D8
:102400000169A961207B012803D13046FFF7B2FDA5
:1024100002E03046FFF76EFD00273846C9E770B589
:10242000054600242846FFF78DFD0446002C01D107
:10243000401E70BD60680068C0B2FAE770B506461D
:102440000D4600243046FFF77DFD0446002C01D1E7
:10245000042070BD00BF06213046FFF7EDFE0028C6
:10246000F9D060680068000A0002E9B208436168B8
:1024700008600020EDE770B505460C4600262846AA
:10248000FFF760FD064670688461002070BD70B57E
:1024900006460C4600253046FFF754FD05466868A1
:1024A0004068012149028843610201225202114021
:1024B000084369684860002070BD70B506460D4647
:1024C00000243046FFF73EFD0446002C01D10420D5
:1024D00070BD606840680C218843A9000C2211403F
:1024E0000843616848600020F2E770B506460D4673
:1024F00000243046FFF726FD0446002C01D10420BD
:1025000070BD60684068C0218843A901C0221140A5
:102510000843616848600020F2E770B506460C4643
:1025200000253046FFF70EFD0546002D01D10420A1
:1025300070BD002C13D06868406820218843217842
:102540004901202211400843696848602078012829
:1025500005D1607869688860A0786968C8600020E3
:10256000E6E770B506460C4600253046FFF7EAFC64
:102570000546002C04D0012C03D0022C0FD101E021
:1025800000BF00BF68684068032189038843A10336
:1025900003229203114008436968486001E0042067
:1025A00070BD00BF0020FBE730B50446D007C00F68
:1025B000002814D0002B09D02F482018006B0125CB
:1025C0008D4028432C4D6519286308E02A482018BF
:1025D000006B01258D40A843274D65192863022013
:1025E0001040002814D0002B09D023482018406B3D
:1025F00001258D402843204D6519686308E01E4879
:102600002018406B01258D40A8431B4D6519686358
:1026100004201040002814D0002B09D016482018A0
:10262000806B01258D402843134D6519A86308E090
:1026300011482018806B01258D40A8430E4D651967
:10264000A86308201040002814D0002B09D00A48A5
:102650002018C06B01258D402843074D6519E8639C
:1026600008E005482018C06B01258D40A843024DA5
:102670006519E863002030BD000D0240024803499F
:1026800088600348886070475A5A00000020004064
:10269000A5A5000030B47446641E2578641CAB42C6
:1026A00004D3635D5B00E31830BC18471D46F8E7B0
:1026B000002805DBC206D20E01219140014A1160BB
:1026C0007047000080E200E010B5002819DB1A4ACC
:1026D00003231B02D21883089B00D2588307DC0E09
:1026E000FF23A3409A438B071B0E8407E40EA340ED
:1026F0001A43114B032424021B198408A4001A5105
:1027000018E00E4A03071B0F083B9B089B00D2589A
:102710008307DC0EFF23A3409A438B071B0E84071D
:10272000E40EA3401A43054B0407240F083CA408F9
:10273000A4001A5110BD000000E100E01CED00E013
:1027400010B5002819DB1A4A03231B02D21883088C
:102750009B00D2588307DC0EFF23A3409A438B07CC
:102760001B0E8407E40EA3401A43114B03242402DA
:102770001B198408A4001A5118E00E4A03071B0F06
:10278000083B9B089B00D2588307DC0EFF23A34025
:102790009A438B071B0E8407E40EA3401A43054B94
:1027A0000407240F083CA408A4001A5110BD00001F
:1027B00000E100E01CED00E010B5002819DB1A4A2A
:1027C00003231B02D21883089B00D2588307DC0E18
:1027D000FF23A3409A438B071B0E8407E40EA340FC
:1027E0001A43114B032424021B198408A4001A5114
:1027F00018E00E4A03071B0F083B9B089B00D258AA
:102800008307DC0EFF23A3409A438B071B0E84072C
:10281000E40EA3401A43054B0407240F083CA40808
:10282000A4001A5110BD000000E100E01CED00E022
:102830000146002900D17047C8B2002804D0C8B2B0
:10284000114A105C401CF6E7FF20000208400028F7
:1028500007D0FF200002084000120B4A105C09302C
:10286000E9E7FF2000040840002807D0FF2000040B
:1028700008400014044A105C1130DCE7080E024ADC
:10288000105C1930D7E7000056B8000010B505F00D
:10289000B3FF002805D00021C943034804F044F8E1
:1028A00010BD0020FCE70000A00B002010B504467E
:1028B000002C05D02B225201054906A002F076FF1C
:1028C00005F09AFF002802D0064803F039FF10BD3A
:1028D00078B900006C6576656C203D3D2052545FF0
:1028E000454F4B00A00B002070B5044620680546FC
:1028F000143D00BF00BF284605F02EFF002070BD2C
:10290000F7B505460C46204606F020F80298002848
:1029100002D0012822D105E021461431284603F0D7
:10292000DBFD21E02E680EE03746143F3520015DC7
:10293000C05D814206DA214614313846143003F076
:10294000CBFD02E03668AE42EED100BFAE4204D10C
:1029500021461431284603F0BFFD05E0A3220449B7
:1029600004A002F023FF00BF00BF0020FEBD000056
:10297000D3BA00003000000010B5044620461430E1
:1029800003F099FD002010BDF7B58CB00546174641
:102990000024002D05D1FF220C321D491DA002F09C
:1029A00005FF002F05D1FF220D3219491AA002F0B0
:1029B000FDFE00E0641C285D202805D0285D092864
:1029C00002D00D988442F5D3002C02D1601E0FB0C6
:1029D000F0BD2146284602F089FC0646002E01D1B2
:1029E000401EF4E72822002101A803F055FE01AAA9
:1029F00028460D9902F0CCFC0B900B98002801D1D1
:102A0000401EE4E701A90B98B04738600020DEE7DC
:102A100057B70000636D64007265747000000000B9
:102A2000F8B50D4616461F460024E443402D01D359
:102A3000601FF8BD2C46FDF7A3FB00900C206043FF
:102A40001F49085EA84217D10C2060434018406817
:102A5000B84211D10C20604340184088B0420BD1DD
:102A60000C206043401881680698814204D1009888
:102A7000FDF78AFB0020DCE70C2060431049085E6C
:102A8000401C002804D00098FDF77EFB0720D0E70B
:102A900029B20C2060430A4A11520C2060431146AF
:102AA000401847600C206043801846800C21614329
:102AB0008918069888600098FDF766FB0020B8E743
:102AC0001C000020F8B5054616462F46002F04D1FD
:102AD0003822084908A002F069FE3446002C01D1D2
:102AE000601EF8BD62882188386C036828469847C4
:102AF0000020F6E770B4000070696E20213D20527E
:102B0000545F4E554C4C0000F8B507460D46002466
:102B1000E443402D01D3601FF8BD2C46FDF730FB88
:102B200006460C2060431149085E401C002804D171
:102B30003046FDF729FB0020EEE70021C9430C20B9
:102B400060430A4A115200210C2060438018416002
:102B50000C206043801841800C2060438018816005
:102B60003046FDF711FB0020D6E700001C000020D6
:102B7000F0B585B00C461646402C03D2012E05D088
:102B8000002E03D00520C04305B0F0BD254620111E
:102B90008007000E039027073F0F012E55D1FDF748
:102BA000EFFA04900C2068433D49085E401C002861
:102BB00004D10498FDF7E8FA0620E5E7012168460C
:102BC0000171417181710021C1710121017201AA5C
:102BD00039460398FEF756F839460398FDF7ECFF9F
:102BE0000C2068432E4940184088002806D0012850
:102BF0000AD003280ED0042818D111E00422394647
:102C00000398FEF701F811E0082239460398FDF712
:102C1000FBFF0BE0012239460398FDF7F5FF05E0C5
:102C2000022239460398FDF7EFFF00BF00BFE1170E
:102C3000090F0919091148B2012203210094FDF777
:102C400061FF0498FDF7A0FA27E0FDF799FA0490D8
:102C50000C206843124940184088002806D00128FB
:102C60000AD002280ED0042813D10CE004223946E1
:102C70000398FDF7BDFF0CE0082239460398FDF7E5
:102C8000B7FF06E005E0022239460398FDF7B0FFE2
:102C900000BF00BF0498FDF777FA002074E700003A
:102CA0001C000020FEB50C46154600200090019047
:102CB000402C00D3FEBD2B00FFF7ECFC05040B15E8
:102CC0001F2A320000216846017001214170017104
:102CD00027E0012168460170417081700021C170B8
:102CE000012101711DE00121684601704170817070
:102CF0000021C1700121017113E0012168460170BA
:102D00004170022181700021C1700121017108E030
:102D100000216846017001214170C170017100E01D
:102D200000BF00BF20118007070E2607360F31466F
:102D30006A463846FDF7A6FF00BFBBE7F8B5054673
:102D400016461F460095009D002D04D119220A4900
:102D50000AA002F02BFD3446002C01D0042F01D034
:102D60000020F8BD21880098006C826828469047B2
:102D700060803846F5E700005BB4000070696E20A3
:102D8000213D2052545F4E554C4C0000F8B50C4686
:102D90000027402C0CD220118007060E25072D0F8E
:102DA00029463046FDF73CFF002800D100E001270E
:102DB0003846F8BDF8B5054616461F460095009DF5
:102DC000002D04D128220A490AA002F0EFFC344663
:102DD000002C01D0042F01D00020F8BD628821888A
:102DE0000098006C4368284698473846F5E700008D
:102DF00065B4000070696E20213D2052545F4E552D
:102E00004C4C0000F8B50C461646402C10D2201150
:102E10008007070E25072D0F002E04D1E9B2384692
:102E2000FDF7E4FF04E0E9B201223846FDF7DEFFDA
:102E3000F8BD000070B50446002C04D15F22134990
:102E400013A002F0B3FCA06A0078232809D1A16A7C
:102E5000E069884205D9E16AA06A4018E1698842C0
:102E60000AD221460FA003F0FBFAFDF789F90546C7
:102E700000BF002DFDD108E0A06A2030E169814249
:102E800003D821460EA003F0EBFA70BD08B800008D
:102E900074687265616420213D2052545F4E554C28
:102EA0004C0000007468726561643A257320737485
:102EB00061636B206F766572666C6F770A00000045
:102EC0007761726E696E673A20257320737461634F
:102ED0006B20697320636C6F736520746F20656E5F
:102EE00064206F6620737461636B20616464726533
:102EF00073732E0A0000000070B50446064800688F
:102F0000FFF796FC451EE800044908580646143EA3
:102F10002560304670BD0000D0030020A00A0020CC
:102F200010B50948006800280DD100BF07A003F0C4
:102F300097FA094803F094FA08A003F091FA00BF49
:102F400001200149086010BD180000205B572F5573
:102F50004152545D2000000070BE00000A000000D5
:102F6000FEB506460F461546002E05D1FF2211324A
:102F70001F4920A002F01AFC0295F46C002C05D128
:102F8000FF2215321A4920A002F010FC29E0FDF7BB
:102F9000F7F80090E088A188884206D1A068002850
:102FA00003D10098FDF7F0F81DE0E1882068405C4F
:102FB0000190E088401CE080E188B06C8001000C4A
:102FC000814201DB0020E080A068012801D10020BF
:102FD000A0600098FDF7D8F8019838707F1C6D1E2E
:102FE00000BF002DD3D100BF0298401BFEBD0000E2
:102FF00003B5000073657269616C20213D20525455
:103000005F4E554C4C00000072785F6669666F2019
:10301000213D2052545F4E554C4C0000F8B50446FB
:103020000E461546002C05D1FF2241321C491D4891
:1030300002F0BCFB0095276D002F05D1FF22453221
:10304000174919A002F0B2FB24E030780A2811D108
:10305000208B4021084000280CD0206C0D21826874
:1030600020469047401C002804D1411E384602F0FB
:1030700047FC0FE03178206C826820469047401C66
:10308000002804D1411E384602F03AFC02E0761CCA
:103090006D1E00BF002DD8D10098401BF8BD000068
:1030A00012B500000C310000747820213D205254EC
:1030B0005F4E554C4C000000F8B506460F461446CE
:1030C000002E04D1DA22104910A002F06FFB009408
:1030D00013E0306CC168304688470546681C0028FC
:1030E00000D10CE03D707F1C641E308B40210840F5
:1030F000002802D00A2D00D101E0002CE9D100BF48
:103100000098001BF8BD0000E3B40000736572690D
:10311000616C20213D2052545F4E554C4C00000004
:10312000F8B504460E461546002C04D1F1220F498D
:103130000F4802F03BFB2F4613E030780A2809D1F4
:10314000208B40210840002804D0206C0D2182688B
:10315000204690473178206C826820469047761C44
:103160006D1E002DE9D1781BF8BD0000F3B40000FE
:103170000C310000704770B505F03EFB0446FCF7CB
:10318000FFFF0546204604F00FF820464C3005F0BE
:103190008DFD042134200155204605F06BF92846A9
:1031A000FCF7F2FF03F0FEFE70BD0000FEB5044622
:1031B00015461E460A9F204614304060006000BF3E
:1031C000256266620898A0620998E0622321E26A9B
:1031D000A06A03F061FAE16AA06A4018021F606AFF
:1031E0000190206A1A4B0090019903F0D3F8E06136
:1031F000202F04DBBE22174917A002F0D7FA352092
:1032000007550020A063E0630021402001550B9882
:1032100060640B98A06400202063342001550020D6
:10322000A067E06700902346144A2146019020469B
:103230004C3005F0ADFD00BF11480068002803D0F8
:1032400020460F490968884700BF0020FEBD0000E6
:1032500077310000C3BD00007072696F72697479C4
:10326000203C2052545F5448524541445F505249DB
:103270004F524954595F4D415800000085320000BB
:10328000F804002070B505462C46002C04D1872296
:10329000154916A002F08AFA3420005D4007400F5D
:1032A000022804D08822104915A002F07FFA204697
:1032B00003F0DAFD012804D089220B491F4802F0EF
:1032C00075FAFCF75DFF06460120C04320632046E7
:1032D000143003F044F9204603F016FF3046FCF7A3
:1032E00053FF03F05FFE70BDB3BD000074687265EC
:1032F000616420213D2052545F4E554C4C0000002B
:10330000287468726561642D3E7374617420262090
:1033100052545F5448524541445F535441545F4DA9
:1033200041534B29203D3D2052545F544852454162
:10333000445F53555350454E44000000B8C200004E
:10334000FFB581B004460E4617460A986072607A4F
:10335000400840006072E66127620020A062049885
:103360006062002506E0EA0021461431501803F09F
:103370009FF86D1C012DF6DB05B0F0BDF8B50446D5
:103380000D46FCF7FDFE0746204603F0BCF800287A
:1033900009D120680646143EB06A28603846FCF71A
:1033A000F3FE0020F8BD3846FCF7EEFE0020C043D7
:1033B000F8E770B50546002406E0E200294614311E
:1033C000501803F0BAF8641C012CF6DB70BD000045
:1033D00008B51EE069460F48FFF7D0FF002807D068
:1033E00005F00AFA044605F0B1FA03F0DBFD0EE041
:1033F00005F01AFB04460098001B0749884205D2D5
:103400000098001B0090009805F042F800BF04F0FF
:103410001DFEDFE714040020FFFFFF7F10B502A0B0
:1034200003F01EF8002010BD1B5B324A1B5B4800F6
:103430003EB504460D4600200290019000906A4679
:1034400001A902A803F004F906A0029903F008F804
:1034500008A0019903F004F80AA0009903F000F80D
:1034600000203EBD746F74616C2020203A202564DA
:103470000A00000075736564202020203A2025642E
:103480000A0000006D6178696D756D203A20256431
:103490000A00000070B504460D4601F09BFC0020B8
:1034A00070BD10B50A460146002900D110BD02E0EA
:1034B00000230B70491C1346521E002BF8D100BF8D
:1034C000F4E7000070B50546114812494861002034
:1034D0008861052008610FE000200E4988610E49CF
:1034E0000E480068FCF7EEFF012109060C1A00BF28
:1034F00008488069A042FBD828466D1E0028EBD101
:1035000004480069400840000249086170BD00009D
:10351000FFFFFF0000E000E0A08601008C03002018
:1035200070B50546114812494861002088610520A0
:10353000086110E000200E4988617D21C9000D4816
:103540000068FCF7BFFF012109060C1A00BF0848FC
:103550008069A042FBD828466D1E0028EAD10448A5
:103560000069400840000249086170BDFFFFFF008C
:1035700000E000E08C03002010B511480068203006
:1035800040788007C00F002803D10E490870084614
:1035900010BD0D480068002807D080220A48016845
:1035A0000848FCF759FF0748F2E708A10548FCF76F
:1035B000AFFE08A10348FCF743FF0248E8E700001C
:1035C000840300201C0A0020880300206D736820FB
:1035D000000000003E00000038B5002000901B48AD
:1035E0000068002804D1A22219491AA002F0DEF8CE
:1035F00016480068FF30FF300230C468002C01D14B
:10360000601E38BD17E00021C9431048006803F070
:10361000C7FE0E480068FF30FF300230C068A0428D
:1036200009D00A480068FF30FF300230C468002C1F
:1036300001D1601EE5E701236A46991E204602F08B
:10364000DFFB0128DFD168460078DAE78403002039
:10365000FCB600007368656C6C20213D2052545FFD
:103660004E554C4C0000000070B504460D4607480E
:103670000068002804D1C122054906A002F096F88E
:103680000248006803F032FE002070BD8403002071
:103690000AB700007368656C6C20213D2052545FAE
:1036A0004E554C4C0000000070B5054600242F48D4
:1036B0000068002804D1D4222D492EA002F076F80B
:1036C000284602F0E3FA0446002C04D129462EA035
:1036D00002F0C6FE70BD25480068FF30FF300230A2
:1036E000C068A04200D1F5E7FF214431204602F036
:1036F000D5FA002837D11D480068FF30FF3002306E
:10370000C068002810D019490968FF31FF31023123
:10371000C86802F05FFA15490968FF31FF310231CC
:10372000C868002102F0E2FB512200210F48006826
:10373000FF30B73002F0B0FF00210C480068FF30C6
:10374000FF300230018109480068FF30FF3002304D
:10375000418106480068FF30FF300230C4601249E2
:10376000204602F0C3FB00BFB4E700008403002042
:1037700017B700007368656C6C20213D2052545FC0
:103780004E554C4C0000000066696E73683A206329
:10379000616E206E6F742066696E64206465766960
:1037A00063653A2025730A006936000010B50446A7
:1037B0000B480068002804D18E220A490AA001F0B3
:1037C000F5FF0748006820304078022188436100F7
:1037D000022211400843024909682031487010BD97
:1037E00084030020E6B600007368656C6C20213D00
:1037F0002052545F4E554C4C00000000024A1060AD
:10380000024A1160704700007C0300208003002002
:103810007CB5002519491A48FFF7F0FF212109015D
:10382000012001F0FFFF17490860084600680028E2
:1038300004D115A002F014FE681E7CBD0A201421DC
:1038400001235B02002200910190154915A004F0AC
:10385000CBFD044600231A4614A10A48006803F071
:10386000E5FC0120FFF7A2FF002C04D0002D02D1BF
:10387000204605F00BF80020DFE70000A4C500009B
:10388000FCC40000840300206E6F206D656D6F72B4
:103890007920666F72207368656C6C0A0000000006
:1038A000B5380000747368656C6C000073687278DA
:1038B00000000000FE4800682030407840084000CA
:1038C000401CFB49096820314870F9480068FF3006
:1038D000FF300230C068002808D102F02FF90546F9
:1038E000002D02D02846FFF7DFFE00BFFFF744FEA1
:1038F000054602F0B5FDD0E2FFF76EFE0446002C4F
:1039000000DACAE21B2C05D10121E9480068203009
:103910000170C2E2E64800682030007801280DD12D
:103920005B2C05D10221E248006820300170B4E22E
:103930000021DF48006820300170D8E0DC480068D2
:10394000203000780228F8D10021D94800682030C2
:103950000170412C39D1D6480068408C002807DD21
:10396000D3480068408C401ED1490968488404E06F
:103970000020CF49096848848FE2CD480068408C18
:1039800050225043CA4A1268263281185022C84831
:103990000068FF30B73002F00BFEC5480068FF300A
:1039A000B730FCF7DBFC81B2C1480068FF30FF3064
:1039B00002300181BE480068FF30FF300230418193
:1039C000BB48006805F086FD67E2422C46D1B84846
:1039D0000068418CB6480068808C401E814207DA3E
:1039E000B3480068408C401CB149096848840DE028
:1039F000AF480068808C002807D0AD480068808CF4
:103A0000401EAB490968488400E046E2A8480068C7
:103A1000408C50225043A64A126826328118502208
:103A2000A3480068FF30B73002F0C2FDA04800682C
:103A3000FF30B730FCF792FC81B29D480068FF3040
:103A4000FF30023001819A480068FF30FF300230B9
:103A500041819748006805F03DFD1EE2442C19D1D4
:103A600093480068FF30FF3002304089002810D0B2
:103A700090A002F0F5FC8E480068FF30FF30023065
:103A80004089401E81B28A480068FF30FF30023012
:103A9000418102E2432C2AD185480068FF30FF3083
:103AA0000230418982480068FF30FF3002300089CF
:103AB00081421BDA7E480068FF30FF3002304289C5
:103AC0007B480068FF30B730815C7BA002F0C8FC07
:103AD00077480068FF30FF3002304089401C81B2D7
:103AE00073480068FF30FF3002304181D5E1002C7F
:103AF00001D0FF2C00D1D0E1092C27D1002503E013
:103B00006CA002F0ADFC6D1C69480068FF30FF300E
:103B100002304089A842F3DC65480068FF30B730C6
:103B200005F0C0FC62480068FF30B730FCF716FCB7
:103B300081B25F480068FF30FF30023001815C488D
:103B40000068FF30FF3002304181A6E17F2C01D0B8
:103B5000082C79D156480068FF30FF300230408988
:103B6000002800D199E152480068FF30FF30023050
:103B70000089401E81B24E480068FF30FF3002309D
:103B800001814B480068FF30FF3002304089401E01
:103B900081B247480068FF30FF300230418144481D
:103BA0000068FF30FF300230018941480068FF3073
:103BB000FF3002304089814254DD3D4B1B68FF33AA
:103BC000FF3302331E893A4B1B68FF33FF33023346
:103BD0005B89F21A364B1B68FF33FF3302335B8974
:103BE0005B1C334E3668FF36B7369919304B1B686D
:103BF000FF33FF3302335E892D4B1B68FF33B7332E
:103C0000F01802F004FD002129480068FF30FF3061
:103C10000230028926480068FF30B73081542448BA
:103C20000068FF30FF300230428921480068FF30D1
:103C3000B730111821A002F013FC1D480068FF30B6
:103C4000FF300230458904E01CE01AA002F008FCB5
:103C50006D1C17480068FF30FF3002300089A84211
:103C6000F3DA0EE017A002F0FBFB00211048006819
:103C7000FF30FF30023002890D480068FF30B73056
:103C800081540AE10D2C01D00A2C44D10848006867
:103C900005F03AFC0648006820304078C007C00FA5
:103CA000002802D008A002F0DBFB014800680DE00C
:103CB000840300200800000025630000082573200D
:103CC00020080000082008000A000000FF30FF3034
:103CD0000230018971480068FF30B73001F0CCFA3A
:103CE000FFF74AFC054602F0BBFB512200216B485E
:103CF0000068FF30B73002F0CFFC00216748006851
:103D0000FF30FF300230018164480068FF30FF302F
:103D100002304181C1E061480068FF30FF3002306D
:103D20000089502806DB00215C480068FF30FF3026
:103D30000230018159480068FF30FF30023041896C
:103D400056480068FF30FF300230008981425ADA5D
:103D5000524B1B68FF33FF3302331E894F4B1B68E6
:103D6000FF33FF3302335B89F21A4C4B1B68FF337E
:103D7000FF3302335E89494B1B68FF33B733F118B9
:103D8000464B1B68FF33FF3302335B895B1C434E9A
:103D90003668FF36B736981902F039FC3F4800689C
:103DA000FF30FF30023042893C480068FF30B730B6
:103DB00084543A48006820304078C007C00F00287B
:103DC0000DD036480068FF30FF300230428933485A
:103DD0000068FF30B730111831A002F041FB2F48C6
:103DE0000068FF30FF300230458903E02DA002F06B
:103DF00037FB6D1C29480068FF30FF300230008916
:103E0000A842F3DC16E025480068FF30FF3002309E
:103E1000028922480068FF30B73084541F48006888
:103E200020304078C007C00F002803D021461EA0D4
:103E300002F016FB002419480068FF30FF30023002
:103E40000089401C81B215480068FF30FF30023005
:103E5000018112480068FF30FF3002304089401C69
:103E600081B20E480068FF30FF30023041810B48BC
:103E70000068FF30FF300230008950280CDB002141
:103E800006480068FF30FF300230018103480068B7
:103E9000FF30FF300230418100BF2DE58403002058
:103EA000257300000800000025630000F3B58FB003
:103EB0000D4600200E9010210AA8FFF7F2FA1421F7
:103EC00005A8FFF7EEFA032104A8FFF7EAFA0C2190
:103ED00001A8FFF7E6FA002D04D1BB22554956A0F0
:103EE00001F064FC0F98002804D1BC22514956A06F
:103EF00001F05CFC0F980446083C2068007901281A
:103F000001D105F0B1FB2168087900F0E3F8C6B2F1
:103F10001420704351494018806807901420704362
:103F200008580590142070434018406806901420EB
:103F30007043401800690990142070434018C0680D
:103F4000089005A80C90012108A8017503210172B1
:103F500000216846017428798006800F002802D06D
:103F6000012808D103E0002008A9487204E00220DB
:103F700008A9487200E000BF00BF28790006800F42
:103F8000002804D0012806D0022806D101E000272D
:103F900005E0012703E0022701E0002700BF00BF82
:103FA00028790007000F082800D103E00020C04353
:103FB00011B0F0BD00BF216808793946FEF77DFADF
:103FC00004A80B90216808790AA9FEF7E6F9216890
:103FD00008790121FEF75BFAFDF704FF0190032049
:103FE00069460872286803902168087901A9FDF7DD
:103FF000DDFF0E90216808790E99FEF73CFA2168E2
:1040000008790221FEF706F8216808790121FEF7F8
:1040100001F8216808790021FEF736F8216808794F
:104020000121FEF731F8216808790121FEF773F8C4
:104030000020BDE704B6000052545F4E554C4C20A2
:10404000213D20636667000052545F4E554C4C2062
:10405000213D2073657269616C000000C8B50000E5
:10406000F8B505460E461746002D05D1FF22203231
:10407000104911A001F09AFB2C46083C042E14D0E4
:10408000102E07D0112E11D1216808790121FDF7DA
:10409000FBFF0BE0216808790121FDF7BBFF2168D8
:1040A00008790121FEF77BF800E000BF00BF002087
:1040B000F8BD000013B6000073657269616C2021C1
:1040C0003D2052545F4E554C4C00000010B5044644
:1040D000002010BD70B505460126002411E06000E7
:1040E0000A4940184078A84209D160000E5C002EB1
:1040F00004D08522064907A001F058FB03E0601CAC
:10410000C4B2002CEBD000BF304670BDC4B5000077
:10411000F0B50000696E646578203C20554152542A
:104120005F494E4445585F4D4158000070B5054603
:104130000026F643002D05D1FF225132174918A061
:1041400001F034FB2C46083C20680079012823D17B
:10415000288BFF210131084000280CD01548006849
:10416000002819D021680879FEF759F90646002081
:104170001049086010E0216808790121FEF75CF819
:10418000002809D0216808790121FDF743FF216843
:104190000879FEF744F90646304670BD2AB600009D
:1041A00052545F4E554C4C20213D2073657269611D
:1041B0006C00000078030020FEB50025012002906D
:1041C000254903C90191009000F0E4F801211C2069
:1041D000FDF718FE01210846FDF714FE002435E026
:1041E0001E495C2060431E4A801881645C20604345
:1041F00011464018019A00990265C1645C20604331
:10420000184941185C206043154A11505C266643EA
:104210001746F3195C266643F619B688124F3E43DB
:1042200032465C2666430E4FBE5931685C266643B3
:10423000F6193046083002F06BF80546002D04D020
:104240000A4A0B490BA001F0B1FA641C029884429F
:10425000C6D32846FEBD0000C8B60000DCB500008D
:10426000C00900201C0300200305000062020000BA
:10427000B6B60000726573756C74203D3D205254D3
:104280005F454F4B0000000070B504460E46002C01
:1042900005D1FF223C320E490EA001F087FA2546D7
:1042A000083D208B012189020840002808D0296898
:1042B00008790221FDF7C0FF002801D1401E70BD22
:1042C000296808793146FEF7B9F80120F7E70000C0
:1042D00020B6000052545F4E554C4C20213D2073B7
:1042E000657269616C00000010B502F073F8034854
:1042F00000F03AF802F098F810BD0000C009002064
:1043000010B502F067F8034800F046F802F08CF8A8
:1043100010BD0000C009002010B502F05BF80120BC
:1043200003490860034800F04DF802F07DF810BD25
:1043300078030020C009002010B502F04BF80348B4
:1043400000F05AF802F070F810BD0000C00900201B
:1043500010B502F03FF8034800F064F802F064F88A
:1043600010BD0000C009002010B50446002C05D186
:10437000FF22A432024903A001F018FA10BD000088
:1043800082B6000052545F4E554C4C20213D2075A2
:10439000617274007047000010B50446002C05D10E
:1043A000FF22A932024903A001F000FA10BD00006B
:1043B0009CB6000052545F4E554C4C20213D207558
:1043C0006172740010B50446002C05D1FF228E32B4
:1043D000044905A001F0EAF901212046083001F066
:1043E0001BFF10BD34B6000052545F4E554C4C209C
:1043F000213D20756172740010B50446002C05D172
:10440000FF229F32024903A001F0D0F910BD000045
:1044100066B6000052545F4E554C4C20213D20752D
:104420006172740010B50446002C05D1FF2295324C
:10443000074908A001F0BAF9208C0121890208403F
:10444000002804D002212046083001F0E5FE10BD0E
:104450004DB6000052545F4E554C4C20213D207506
:1044600061727400F0B593B0002728A00390082370
:1044700005AA09210DA800F021F90820049025A023
:10448000039A049901F0ECFF049800F0FDFF2BA0C3
:1044900001F0E6FF00BF0DA9384600F023F90746FA
:1044A00000262BE0B00005A9085805460C3DFBF797
:1044B00067FE1290287A8021884308A9097F8842E4
:1044C00003D01298FBF760FE17E01298FBF75CFE32
:1044D0002C46A17E207D182804DC207D8000204A07
:1044E000105801E01E48006E2346082201910090FA
:1044F0001CA0049901F0B4FF00BF761C1198B042D3
:10450000D0DC002FC7D1002013B0F0BD6465766900
:1045100063650000252D2A2E7320202020202020D6
:1045200020207479706520202020202020202072F7
:10453000656620636F756E740A000000202D2D2DB6
:104540002D2D2D2D2D2D2D2D2D2D2D2D2D2D2D2D9B
:104550002D202D2D2D2D2D2D2D2D2D2D0A00000042
:1045600068B70000252D2A2E2A7320252D3230739E
:1045700020252D38640A0000F0B593B0002731A043
:104580000390082305AA04210DA800F097F808203D
:1045900004902EA0039A049901F062FF049800F0A1
:1045A00073FF33A001F05CFF00BF0DA9384600F097
:1045B00099F8074600253CE0A80005A908580646DA
:1045C0000C3EFBF7DDFD1290307A8021884308A96C
:1045D000097F884203D01298FBF7D6FD28E0129895
:1045E000FBF7D2FD34462046143001F084FF00284A
:1045F00015D12046143001F096FF0290E169234660
:1046000008220091019022A0049901F029FF204680
:10461000143004F0E9FF15A001F022FF07E0E06983
:1046200023460822009020A0049901F019FF00BF42
:104630006D1C1198A842BFDC002FB6D1002013B02A
:10464000F0BD00006576656E74000000252D2A2EF1
:104650007320202020202073657420202020737573
:104660007370656E64207468726561640A0000008E
:1046700020202D2D2D2D2D2D2D2D2D2D202D2D2D91
:104680002D2D2D2D2D2D2D2D2D2D2D0A0000000031
:10469000252D2A2E2A7320203078253038782025A1
:1046A0003033643A00000000252D2A2E2A73202082
:1046B00030782530387820300A000000FEB50446F6
:1046C0000D4616461F46284602F0BCFB0190019895
:1046D000001D00900098206025726660E760002051
:1046E0002061FEBDF0B585B007460C460020049061
:1046F0002061E068002802D0207A002802D1002042
:1047000005B0F0BD20680290002F03D1029D01206A
:10471000049000E03D46FBF733FD03900498002829
:104720000FD128460C3800900098007A80218843E9
:10473000217A884204D00398FBF726FD0020DFE7AA
:1047400000BF0026606801900FE02D680298854246
:1047500001D100250AE0761C019805600198001D32
:104760000190E068B04200D100E0EEE700BF03989E
:10477000FBF70AFD26612846C2E70000F0B595B0B8
:10478000002736A00590082307AA05210FA8FFF7E8
:1047900095FF0820069033A0059A069901F060FE67
:1047A000069800F071FE38A001F05AFE00BF0FA974
:1047B0003846FFF797FF0746002546E0A80007A9FF
:1047C000085806460C3EFBF7DBFC1490307A80213B
:1047D000884310A90979884203D01498FBF7D4FCC8
:1047E00032E01498FBF7D0FC34462046143001F038
:1047F00082FE002817D12046143001F094FE049068
:10480000218C628C2346009201910290082225A0FF
:10481000069901F025FE2046143004F0E5FE27A09D
:1048200001F01EFE0FE02046143001F07CFE0490E3
:10483000218C628C2346009201910290082220A0D4
:10484000069901F00DFE00BF6D1C1398A842B5DC5F
:10485000002FACD1002015B0F0BD00006D61696C77
:10486000626F7800252D2A2E7320656E7472792070
:1048700073697A652073757370656E6420746872ED
:104880006561640A00000000202D2D2D2D20202DB3
:104890002D2D2D202D2D2D2D2D2D2D2D2D2D2D2D55
:1048A0002D2D0A00252D2A2E2A7320253034642030
:1048B00020253034642025643A0000000A000000FE
:1048C000252D2A2E2A7320253034642020253034CB
:1048D000642025640A000000F0B597B0002008901D
:1048E00037A00690082309AA194611A8FFF7E6FE8B
:1048F0000820079034A0069A079901F0B1FD0798A7
:1049000000F0C2FD3AA001F0ABFD00BF11A908986C
:10491000FFF7E8FE0890002649E0B00009A9085812
:1049200007460C3FFBF72CFC1690387A8021884311
:1049300010A9097B884203D01698FBF725FC35E0C7
:104940001698FBF721FC3C460025E06A059003E041
:104950006D1C05980068059021462C310598884209
:10496000F6D1002D14DD626AE169A06A2346039541
:10497000019200910290082226A0079901F070FD93
:1049800020462C3004F030FE21A001F069FD0CE03F
:10499000626AE169A06A2346039501920091029040
:1049A000082223A0079901F05BFD00BF761C159833
:1049B000B042B2DC08980028A8D117B0F0BD0000C2
:1049C0006D656D706F6F6C00252D2A2E7320626CE3
:1049D0006F636B20746F74616C2066726565207301
:1049E000757370656E64207468726561640A000096
:1049F000202D2D2D2D20202D2D2D2D20202D2D2D28
:104A00002D202D2D2D2D2D2D2D2D2D2D2D2D2D2DE3
:104A10000A000000252D2A2E2A7320253034642018
:104A200020253034642020253034642025643A0069
:104A3000252D2A2E2A732025303464202025303459
:104A4000642020253034642025640A00F0B593B03A
:104A5000002734A00390082305AA06210DA8FFF71C
:104A60002DFE0820049032A0039A049901F0F8FC6E
:104A7000049800F009FD35A001F0F2FC00BF0DA97B
:104A80003846FFF72FFE0746002542E0A80005A99B
:104A9000085806460C3EFBF773FB1290307A8021D3
:104AA000884308A9097F884203D01298FBF76CFB62
:104AB0002EE01298FBF768FB34462046143001F0D4
:104AC0001AFD002815D12046143001F02CFD02906B
:104AD000A18C234608220091019022A0049901F0A4
:104AE000BFFC2046143004F07FFD23A001F0B8FC89
:104AF0000DE02046143001F016FD0290A18C2346F3
:104B00000822009101901DA0049901F0A9FC00BFAA
:104B10006D1C1198A842B9DC002FB0D1002013B051
:104B2000F0BD00006D73677175657565000000006C
:104B3000252D2A2E7320656E74727920737573701B
:104B4000656E64207468726561640A00202D2D2DE5
:104B50002D20202D2D2D2D2D2D2D2D2D2D2D2D2D9F
:104B60002D0A0000252D2A2E2A732025303464209A
:104B70002025643A000000000A000000252D2A2E9E
:104B80002A732025303464202025640A00000000A8
:104B9000F0B595B0002728A00590082307AA0321A7
:104BA0000FA8FFF78BFD0820069025A0059A06990F
:104BB00001F056FC069800F067FC2AA001F050FCBA
:104BC00000BF0FA93846FFF78DFD074600262AE0F3
:104BD000B00007A9085804460C3CFBF7D1FA149022
:104BE000207A8021884310A90979884203D014983B
:104BF000FBF7CAFA16E01498FBF7C6FA25462846D2
:104C0000143001F090FC0490E97F08232A6A009395
:104C10000192029103902B4608221AA0069901F0F6
:104C20001FFC00BF761C1398B042D1DC002FC8D106
:104C3000002015B0F0BD00006D75746578000000AF
:104C4000252D2A2E732020206F776E657220206814
:104C50006F6C642073757370656E64207468726520
:104C600061640A00202D2D2D2D2D2D2D2D202D2D73
:104C70002D2D202D2D2D2D2D2D2D2D2D2D2D2D2D71
:104C80002D0A0000252D2A2E2A7320252D382E2AA4
:104C90007320253034642025640A0000F0B593B0F9
:104CA000002734A00390082305AA02210DA8FFF7CE
:104CB00005FD0820049032A0039A049901F0D0FB6E
:104CC000049800F0E1FB35A001F0CAFB00BF0DA97C
:104CD0003846FFF707FD0746002542E0A80005A972
:104CE000085806460C3EFBF74BFA1290307A8021AA
:104CF000884308A9097F884203D01298FBF744FA39
:104D00002EE01298FBF740FA34462046143001F0AA
:104D1000F2FB002815D12046143001F004FC02906B
:104D2000A18B234608220091019022A0049901F052
:104D300097FB2046143004F057FC17A001F090FBBD
:104D40000DE02046143001F0EEFB0290A18B2346CB
:104D50000822009101901BA0049901F081FB00BF83
:104D60006D1C1198A842B9DC002FB0D1002013B0FF
:104D7000F0BD000073656D6170686F7265000000C2
:104D8000252D2A2E73207620202073757370656E72
:104D900064207468726561640A000000202D2D2D66
:104DA000202D2D2D2D2D2D2D2D2D2D2D2D2D2D0A63
:104DB00000000000252D2A2E2A7320253033642080
:104DC00025643A00252D2A2E2A73202530336420AD
:104DD00025640A00F0B5B7B00020289049A02790BC
:104DE000082329AA012131A8FFF768FC0820269092
:104DF0004648279A269901F033FB269800F044FB99
:104E000043A001F02DFB00BF31A92898FFF76AFCF1
:104E10002890002025906BE02598800029A908584B
:104E200005460C3DFBF7ACF93690287A8021884383
:104E300030A9097B884203D03698FBF7A5F954E0E6
:104E40008022294605A801F0B3FB3698FBF79CF9B0
:104E50002C463520005D2346082200903CA0269970
:104E600001F0FEFA3420005D4607760F012E03D1D3
:104E70003AA001F0F5FA16E0022E03D13AA001F0B3
:104E8000EFFA10E0002E03D13AA001F0E9FA0AE0AF
:104E9000042E03D13AA001F0E3FA04E0032E02D17C
:104EA0003AA001F0DDFAA76A00E07F1C38782328D9
:104EB000FBD0A36AFB1AE26AD21A64235A43104653
:104EC000E16AFBF7FFFA0490216BA06C019100905E
:104ED000E169A06A401AE16A40180390E26A01465B
:104EE0002DA0049B01F0BCFA00BF2598401C259022
:104EF0003599259881428FDC2898002884D137B0D5
:104F0000F0BD00007468726561640000DCBE0000E2
:104F1000202D2D2D20202D2D2D2D2D2D2D202D2DF5
:104F20002D2D2D2D2D2D2D2D202D2D2D2D2D2D2DBE
:104F30002D2D2D20202D2D2D2D2D2D20202D2D2DD5
:104F40002D2D2D2D2D2D2D202D2D2D0A0000000075
:104F5000252D2A2E2A7320253364200020726561B6
:104F600064792020000000002073757370656E6402
:104F70000000000020696E697420202000000000FD
:104F800020636C6F73652020000000002072756E36
:104F90006E696E6700000000203078253038782078
:104FA000307825303878202020202530326425259F
:104FB00020202030782530387820253033640A00CE
:104FC000F0B593B0002733A00390082305AA0A2167
:104FD0000DA8FFF773FB0820049030A0039A0499F2
:104FE00001F03EFA049800F04FFA39A001F038FAC7
:104FF00000BF0DA93846FFF775FB074600263AE0CB
:10500000B00005A9085805460C3DFBF7B9F8129009
:10501000287A8021884308A9097F884203D0129802
:10502000FBF7B2F826E01298FBF7AEF82C46A16A1F
:10503000606A234608220191009031A0049901F092
:105040000FFA607AC007C00F002803D032A001F029
:1050500007FA02E034A001F003FA607A0221084066
:10506000002803D034A001F0FBF902E035A001F0E4
:10507000F7F900BF761C1198B042C1DC002FB8D1FF
:1050800003F0D2FC0446214631A001F0E9F90020EA
:1050900013B0F0BD74696D6572000000252D2A2ED5
:1050A000732020706572696F6469632020207469C1
:1050B0006D656F757420202020616374697661745A
:1050C000656420202020206D6F64650A00000000C8
:1050D000202D2D2D2D2D2D2D2D2D2D202D2D2D2D1A
:1050E0002D2D2D2D2D2D202D2D2D2D2D2D2D2D2DFD
:1050F0002D2D202D2D2D2D2D2D2D2D2D0A00000097
:10510000252D2A2E2A7320307825303878203078C3
:105110002530387820000000616374697661746519
:10512000642020200000000064656163746976617A
:105130007465642000000000706572696F646963C3
:105140000A0000006F6E652073686F740A0000002B
:1051500063757272656E74207469636B3A3078257A
:105160003038780A0000000008B5FBF775FF002012
:10517000FBF710FF0020FBF71CFFFBF7F3FEFCF72B
:105180000DFAFBF736FB012018230EA20A2100902E
:105190002020FCF7A9F9012018230CA2232100905C
:1051A0001420FCF7A1F9FCF715F80B48FEF7B8F945
:1051B000FBF7D8FE05E0FCF70DF8FBF7EFFBFBF77C
:1051C00099FBF8E7536D61727400000042726163ED
:1051D000656C657400000000B80B000010B5044653
:1051E00000F09EFCFFF7C0FF10BD0000F1B582B0DB
:1051F00000260020019002980078002804D10021A8
:10520000084600F093F8FEBD184805681FE02F68B7
:105210000298FBF7A3F80246394600900298FBF784
:10522000BFF8002812D1002E04D101970198FBF796
:1052300095F806463946019804F004FA0446B4424B
:1052400000DA264639460AA001F00AF90C35094869
:1052500000688542DBD30198002804D032460199CA
:10526000029802F09AFF00BFCDE700007C03002007
:1052700025730A008003002038B504460D4601E07E
:10528000641C6D1E002D05D020782028F8D02078D1
:105290000928F5D0002D01D1002038BD6A462946E5
:1052A0002046FDF771FB002801D10098F5E7204664
:1052B00000E0401C0178202902D001780029F8D1B3
:1052C00000210170214603A001F0CAF80020C0436C
:1052D000E3E7000025733A20636F6D6D616E642013
:1052E0006E6F7420666F756E642E0A00F8B5064600
:1052F0000D4600270B4804680DE02A463146206819
:10530000FBF74EF8002805D12068405D002801D148
:10531000A76804E00C34044800688442EDD300BF61
:105320003846F8BD7C0300208003002070B5054698
:105330000E460AA001F094F80F48046805E00FA09B
:105340006268216801F08CF80C340F4800688442D0
:10535000F5D30EA001F084F8002070BD52542D54F6
:105360006872656164207368656C6C20636F6D6D35
:10537000616E64733A0A00007C030020252D3136EB
:1053800073202D2025730A00800300200A000000EE
:10539000F7B582B00E46029C002500275BE003E0D3
:1053A00000202070641C6D1C2078202802D02078FA
:1053B000092801D1B542F3D30A2F16D329A001F051
:1053C0004FF80020019009E001988200049881586C
:1053D0002CA001F045F80198401C01900198B842BA
:1053E000F2D327A001F03CF837E0B54200D334E017
:1053F000207822281DD1641C6D1CB90004984450EB
:105400007F1C09E020785C2804D16078222801D133
:10541000641C6D1C641C6D1C2078222801D0B542D0
:10542000F0D3B54200D318E000202070641C6D1C3E
:1054300011E0B900049844507F1C01E0641C6D1C0D
:105440002078202804D02078092801D0B542F5D34F
:10545000B54200D301E0B542A1D300BF384605B044
:10546000F0BD0000546F6F206D616E79206172672E
:10547000732021205765206F6E6C79205573653A33
:105480000A0000002573200010B5044602E004A0C5
:1054900000F0E6FF2046641E0028F8D110BD000091
:1054A0002D00000070B505460E4600BFA80900019A
:1054B0003107090F084304460C2060430749401890
:1054C0004068002809D00C2262430B46D21890682D
:1054D0000C226243D2185168884770BD1C0000201E
:1054E000F8B504460D46A06AA84204D98222204994
:1054F00020A000F05BF9E06AA84204D883221C498E
:1055000025A000F053F9A06A69684618B54215D085
:105510003078C007C00F002810D1E06AB0420DD02B
:10552000206BB04200D12563002030607068686055
:10553000A06A281AA16A726889188860A06AA96896
:105540004718AF4212D03878C007C00F00280DD1DD
:10555000206BA84200D1276300202860686878602B
:10556000A06A381AA16A6A6889188860F8BD0000C4
:105570006EBD00002872745F75696E74385F7420A8
:105580002A296D656D203E3D206D2D3E6865617058
:105590005F707472000000002872745F75696E7429
:1055A000385F74202A296D656D203C202872745F55
:1055B00075696E74385F74202A296D2D3E686561A7
:1055C000705F656E64000000FFB58BB00446154641
:1055D000169E1598049014980290402030400028A0
:1055E00001D05C4800E05C48039010203040002867
:1055F00001D076087600F007C00F002801D03020D7
:1056000000E020200A90002009900220304000286D
:1056100012D0002D03DA2D2009906D420CE00420F9
:105620003040002802D02B20099005E008203040AF
:10563000002801D0202009900027002D05D130221C
:1056400038467F1C05A90A541DE01AE00E98019007
:1056500001980A280AD128460A21FAF733FF009157
:1056600028460A21FAF72EFF054603E02807000F17
:1056700000902D09009803990A5C38467F1C05A903
:105680000A54002DE2D11598874200DD159715992F
:105690000298401A029011203040002814D1099835
:1056A000002805D00298002802DD0298401E0290D2
:1056B00005E00C98844201D220202070641C0298DE
:1056C000411E02910028F4DC0998002808D00C98AB
:1056D000844201D2099820700298401E0290641CF6
:1056E0001020304000280BD105E00C98844201D2F4
:1056F0000A982070641C0298411E02910028F4DC74
:1057000005E00C98844201D230202070641C15986A
:10571000411E1591B842F4DC06E00C98844202D296
:1057200005A8C05D2070641C38467F1E002802DD7D
:1057300004980028F1D105E00C98844201D2202081
:105740002070641C0298411E02910028F4DC20465F
:105750000FB0F0BD67B9000056B900001CB51420A9
:105760000A2101235B02002200910190074908A051
:1057700002F03AFE0446002C04D1D522064907A0C7
:1057800000F014F8204603F081F81CBDDD51000044
:105790006D61696E0000000053BA000074696420F6
:1057A000213D2052545F4E554C4C0000F8B5044644
:1057B0000D461646002000900B48006800280BD1CB
:1057C00033462A46214609A000F04AFE00BF68463B
:1057D00000780028FBD005E0324629462046024BDF
:1057E0001B689847F8BD0000FC030020282573299A
:1057F00020617373657274696F6E206661696C6590
:10580000642061742066756E6374696F6E3A2573E7
:105810002C206C696E65206E756D6265723A256428
:10582000200A000070B504460D462146694308462B
:1058300000F09EFE0646002E06D020466843024633
:105840000021304600F028FF304670BD70B5044698
:10585000002C04D17F22114911A0FFF7A7FF206877
:10586000012800D170BDFAF78BFC064601202060AC
:10587000201D00F038FE00280BD160680546143D5D
:10588000284602F069FF3046FAF77EFC01F08AFBF9
:1058900002E03046FAF778FC00BFE3E748B40000C6
:1058A000636F6D706C6574696F6E20213D2052547A
:1058B0005F4E554C4C00000070B50446002C04D1DE
:1058C0001B22084908A0FFF771FFFAF759FC0546AB
:1058D00000202060201D4060006000BF2846FAF7CD
:1058E00053FC70BD22B40000636F6D706C65746909
:1058F0006F6E20213D2052545F4E554C4C000000ED
:10590000F3B583B00546002D04D13A22464947A09D
:10591000FFF74CFF00BF049800283DD0FAF730FC99
:10592000029000F031F9002808D03F4945A000F06E
:1059300097FD3D223C494EA0FFF738FF00BFFAF724
:105940001FFC019002F058FF002808D1364949A0F9
:1059500000F086FD3D22344945A0FFF727FF00BF38
:10596000FAF70EFC009000F051FD002808D02E49F7
:105970004EA000F075FD3D222B493DA0FFF716FF1C
:105980000098FAF701FC00BF0198FAF7FDFB00BF91
:105990000298FAF7F9FB00BF00BF002602F02CFFC7
:1059A0000446FAF7EDFB07462868012833D0281D86
:1059B00000F099FD002804D146221B4945A0FFF7BD
:1059C000F5FE0498002801D1861E27E00020206300
:1059D000204602F0BBFF291D204614304A681060A3
:1059E0004A6842604860016000BF0498002809DDF1
:1059F00004AA002120464C3003F0C6F820464C3063
:105A000003F018FA3846FAF7BFFB01F0CBFA266B21
:105A1000FAF7B6FB07460020286000BF3846FAF7C1
:105A2000B3FB304605B0F0BD35B40000636F6D7058
:105A30006C6574696F6E20213D2052545F4E554C49
:105A40004C00000046756E6374696F6E5B25735D74
:105A50003A207363686564756C6572206973206EA3
:105A60006F7420617661696C61626C650A00000088
:105A70003000000046756E6374696F6E5B25735D60
:105A8000207368616C6C206E6F7420626520757382
:105A90006564206265666F7265207363686564750E
:105AA0006C65722073746172740A000046756E63CF
:105AB00074696F6E5B25735D207368616C6C206E1A
:105AC0006F74206265207573656420696E20495388
:105AD000520A000072745F6C6973745F6973656D5C
